{
  "contractName": "ProductAuthentication",
  "abi": [
    {
      "inputs": [],
      "stateMutability": "nonpayable",
      "type": "constructor"
    },
    {
      "inputs": [],
      "name": "admin",
      "outputs": [
        {
          "internalType": "address",
          "name": "",
          "type": "address"
        }
      ],
      "stateMutability": "view",
      "type": "function",
      "constant": true
    },
    {
      "inputs": [
        {
          "internalType": "uint256",
          "name": "",
          "type": "uint256"
        }
      ],
      "name": "companies",
      "outputs": [
        {
          "internalType": "address",
          "name": "",
          "type": "address"
        }
      ],
      "stateMutability": "view",
      "type": "function",
      "constant": true
    },
    {
      "inputs": [
        {
          "internalType": "address",
          "name": "",
          "type": "address"
        }
      ],
      "name": "companyDetails",
      "outputs": [
        {
          "internalType": "address",
          "name": "companyAddress",
          "type": "address"
        },
        {
          "internalType": "string",
          "name": "name",
          "type": "string"
        },
        {
          "internalType": "string",
          "name": "email",
          "type": "string"
        },
        {
          "internalType": "bool",
          "name": "isVerified",
          "type": "bool"
        },
        {
          "internalType": "bool",
          "name": "isRegistered",
          "type": "bool"
        },
        {
          "internalType": "uint256",
          "name": "productCount",
          "type": "uint256"
        },
        {
          "internalType": "int256",
          "name": "rate",
          "type": "int256"
        }
      ],
      "stateMutability": "view",
      "type": "function",
      "constant": true
    },
    {
      "inputs": [
        {
          "internalType": "bytes32",
          "name": "",
          "type": "bytes32"
        }
      ],
      "name": "products",
      "outputs": [
        {
          "internalType": "address",
          "name": "manufacturer",
          "type": "address"
        },
        {
          "internalType": "string",
          "name": "serialNumber",
          "type": "string"
        },
        {
          "internalType": "bool",
          "name": "isAuthentic",
          "type": "bool"
        },
        {
          "internalType": "address",
          "name": "currentOwner",
          "type": "address"
        },
        {
          "internalType": "string",
          "name": "proofOfOwnership",
          "type": "string"
        },
        {
          "internalType": "uint256",
          "name": "price",
          "type": "uint256"
        },
        {
          "internalType": "bool",
          "name": "sell",
          "type": "bool"
        },
        {
          "internalType": "int256",
          "name": "rate",
          "type": "int256"
        },
        {
          "internalType": "int256",
          "name": "usesCount",
          "type": "int256"
        }
      ],
      "stateMutability": "view",
      "type": "function",
      "constant": true
    },
    {
      "inputs": [
        {
          "internalType": "address",
          "name": "",
          "type": "address"
        },
        {
          "internalType": "bytes32",
          "name": "",
          "type": "bytes32"
        }
      ],
      "name": "rated_accounts",
      "outputs": [
        {
          "internalType": "bool",
          "name": "",
          "type": "bool"
        }
      ],
      "stateMutability": "view",
      "type": "function",
      "constant": true
    },
    {
      "inputs": [
        {
          "internalType": "address",
          "name": "",
          "type": "address"
        },
        {
          "internalType": "address",
          "name": "",
          "type": "address"
        }
      ],
      "name": "rated_accounts_company",
      "outputs": [
        {
          "internalType": "bool",
          "name": "",
          "type": "bool"
        }
      ],
      "stateMutability": "view",
      "type": "function",
      "constant": true
    },
    {
      "inputs": [
        {
          "internalType": "uint256",
          "name": "",
          "type": "uint256"
        }
      ],
      "name": "soldProducts",
      "outputs": [
        {
          "internalType": "bytes32",
          "name": "",
          "type": "bytes32"
        }
      ],
      "stateMutability": "view",
      "type": "function",
      "constant": true
    },
    {
      "inputs": [],
      "name": "getAdmin",
      "outputs": [
        {
          "internalType": "address",
          "name": "",
          "type": "address"
        }
      ],
      "stateMutability": "view",
      "type": "function",
      "constant": true
    },
    {
      "inputs": [
        {
          "internalType": "string",
          "name": "_name",
          "type": "string"
        },
        {
          "internalType": "string",
          "name": "_email",
          "type": "string"
        }
      ],
      "name": "registerAsCompany",
      "outputs": [],
      "stateMutability": "nonpayable",
      "type": "function"
    },
    {
      "inputs": [
        {
          "internalType": "bool",
          "name": "_verifedStatus",
          "type": "bool"
        },
        {
          "internalType": "address",
          "name": "companyAddress",
          "type": "address"
        }
      ],
      "name": "verifyCompany",
      "outputs": [],
      "stateMutability": "nonpayable",
      "type": "function"
    },
    {
      "inputs": [
        {
          "internalType": "address",
          "name": "companyAddress",
          "type": "address"
        }
      ],
      "name": "getCompanyName",
      "outputs": [
        {
          "internalType": "string",
          "name": "",
          "type": "string"
        }
      ],
      "stateMutability": "view",
      "type": "function",
      "constant": true
    },
    {
      "inputs": [
        {
          "internalType": "string",
          "name": "_serialNumber",
          "type": "string"
        }
      ],
      "name": "addProduct",
      "outputs": [
        {
          "internalType": "bytes32",
          "name": "",
          "type": "bytes32"
        }
      ],
      "stateMutability": "nonpayable",
      "type": "function"
    },
    {
      "inputs": [
        {
          "internalType": "address",
          "name": "_manufacturer",
          "type": "address"
        }
      ],
      "name": "getProductsByManufacturer",
      "outputs": [
        {
          "internalType": "bytes32[]",
          "name": "",
          "type": "bytes32[]"
        }
      ],
      "stateMutability": "view",
      "type": "function",
      "constant": true
    },
    {
      "inputs": [
        {
          "internalType": "address",
          "name": "owner",
          "type": "address"
        }
      ],
      "name": "getProductsByOwner",
      "outputs": [
        {
          "internalType": "bytes32[]",
          "name": "",
          "type": "bytes32[]"
        }
      ],
      "stateMutability": "view",
      "type": "function",
      "constant": true
    },
    {
      "inputs": [
        {
          "internalType": "bytes32",
          "name": "_productId",
          "type": "bytes32"
        },
        {
          "internalType": "address",
          "name": "_newOwner",
          "type": "address"
        },
        {
          "internalType": "string",
          "name": "proofOfOwnership",
          "type": "string"
        }
      ],
      "name": "transferOwnership",
      "outputs": [],
      "stateMutability": "nonpayable",
      "type": "function"
    },
    {
      "inputs": [
        {
          "internalType": "bytes32",
          "name": "_productId",
          "type": "bytes32"
        }
      ],
      "name": "checkProduct",
      "outputs": [
        {
          "internalType": "bytes32",
          "name": "",
          "type": "bytes32"
        },
        {
          "internalType": "address",
          "name": "",
          "type": "address"
        },
        {
          "internalType": "string",
          "name": "",
          "type": "string"
        },
        {
          "internalType": "address",
          "name": "",
          "type": "address"
        },
        {
          "internalType": "string",
          "name": "",
          "type": "string"
        },
        {
          "internalType": "bool",
          "name": "",
          "type": "bool"
        },
        {
          "internalType": "uint256",
          "name": "",
          "type": "uint256"
        },
        {
          "internalType": "int256",
          "name": "",
          "type": "int256"
        },
        {
          "internalType": "int256",
          "name": "",
          "type": "int256"
        }
      ],
      "stateMutability": "view",
      "type": "function",
      "constant": true
    },
    {
      "inputs": [],
      "name": "getTotalCompany",
      "outputs": [
        {
          "internalType": "uint256",
          "name": "",
          "type": "uint256"
        }
      ],
      "stateMutability": "view",
      "type": "function",
      "constant": true
    },
    {
      "inputs": [],
      "name": "getTotalProduct",
      "outputs": [
        {
          "internalType": "uint256",
          "name": "",
          "type": "uint256"
        }
      ],
      "stateMutability": "view",
      "type": "function",
      "constant": true
    },
    {
      "inputs": [
        {
          "internalType": "bytes32",
          "name": "_productId",
          "type": "bytes32"
        },
        {
          "internalType": "string",
          "name": "proofOfOwnership",
          "type": "string"
        }
      ],
      "name": "buyProduct",
      "outputs": [],
      "stateMutability": "payable",
      "type": "function",
      "payable": true
    },
    {
      "inputs": [
        {
          "internalType": "address",
          "name": "companyAddress",
          "type": "address"
        },
        {
          "internalType": "bool",
          "name": "b",
          "type": "bool"
        }
      ],
      "name": "companyRate",
      "outputs": [],
      "stateMutability": "nonpayable",
      "type": "function"
    },
    {
      "inputs": [
        {
          "internalType": "bytes32",
          "name": "_productId",
          "type": "bytes32"
        },
        {
          "internalType": "bool",
          "name": "b",
          "type": "bool"
        }
      ],
      "name": "productRate",
      "outputs": [],
      "stateMutability": "nonpayable",
      "type": "function"
    },
    {
      "inputs": [],
      "name": "getSoldProduct",
      "outputs": [
        {
          "internalType": "uint256",
          "name": "",
          "type": "uint256"
        }
      ],
      "stateMutability": "view",
      "type": "function",
      "constant": true
    },
    {
      "inputs": [
        {
          "internalType": "bytes32",
          "name": "_productId",
          "type": "bytes32"
        },
        {
          "internalType": "uint256",
          "name": "_price",
          "type": "uint256"
        }
      ],
      "name": "sellProduct",
      "outputs": [],
      "stateMutability": "nonpayable",
      "type": "function"
    }
  ],
  "bytecode": "0x608060405234801561001057600080fd5b50336000806101000a81548173ffffffffffffffffffffffffffffffffffffffff021916908373ffffffffffffffffffffffffffffffffffffffff160217905550600060018190555060006002819055506131e2806100706000396000f3fe6080604052600436106101405760003560e01c806377f98616116100b6578063b8fdba101161006f578063b8fdba1014610c66578063bc1d5d0314610c91578063dfe00c5114610d56578063e5851b0814610e32578063ed81573514610fbf578063f851a4401461101c57610140565b806377f98616146107b557806379054391146107e05780637aed780414610991578063849df74a14610a045780639c6da83d14610aaa578063a4ef703114610b9c57610140565b80632813d19d116101085780632813d19d146103435780632987c8f7146103be57806340f455461461056b5780634d53c300146106ca5780636e9960c31461070f57806376dbafe61461076657610140565b80630fecef4814610145578063158cb539146101eb5780631de36b12146102745780631e4f41f4146102bb5780631ea576e814610318575b600080fd5b34801561015157600080fd5b506101946004803603602081101561016857600080fd5b81019080803573ffffffffffffffffffffffffffffffffffffffff169060200190929190505050611073565b6040518080602001828103825283818151815260200191508051906020019060200280838360005b838110156101d75780820151818401526020810190506101bc565b505050509050019250505060405180910390f35b3480156101f757600080fd5b5061025a6004803603604081101561020e57600080fd5b81019080803573ffffffffffffffffffffffffffffffffffffffff169060200190929190803573ffffffffffffffffffffffffffffffffffffffff16906020019092919050505061110a565b604051808215151515815260200191505060405180910390f35b34801561028057600080fd5b506102b96004803603604081101561029757600080fd5b8101908080359060200190929190803515159060200190929190505050611139565b005b3480156102c757600080fd5b50610316600480360360408110156102de57600080fd5b81019080803573ffffffffffffffffffffffffffffffffffffffff169060200190929190803515159060200190929190505050611282565b005b34801561032457600080fd5b5061032d6114d3565b6040518082815260200191505060405180910390f35b34801561034f57600080fd5b5061037c6004803603602081101561036657600080fd5b81019080803590602001909291905050506114dd565b604051808273ffffffffffffffffffffffffffffffffffffffff1673ffffffffffffffffffffffffffffffffffffffff16815260200191505060405180910390f35b3480156103ca57600080fd5b506103f7600480360360208110156103e157600080fd5b8101908080359060200190929190505050611519565b604051808a81526020018973ffffffffffffffffffffffffffffffffffffffff1673ffffffffffffffffffffffffffffffffffffffff168152602001806020018873ffffffffffffffffffffffffffffffffffffffff1673ffffffffffffffffffffffffffffffffffffffff168152602001806020018715151515815260200186815260200185815260200184815260200183810383528a818151815260200191508051906020019080838360005b838110156104c15780820151818401526020810190506104a6565b50505050905090810190601f1680156104ee5780820380516001836020036101000a031916815260200191505b50838103825288818151815260200191508051906020019080838360005b8381101561052757808201518184015260208101905061050c565b50505050905090810190601f1680156105545780820380516001836020036101000a031916815260200191505b509b50505050505050505050505060405180910390f35b34801561057757600080fd5b506106c86004803603604081101561058e57600080fd5b81019080803590602001906401000000008111156105ab57600080fd5b8201836020820111156105bd57600080fd5b803590602001918460018302840111640100000000831117156105df57600080fd5b91908080601f016020809104026020016040519081016040528093929190818152602001838380828437600081840152601f19601f8201169050808301925050505050505091929192908035906020019064010000000081111561064257600080fd5b82018360208201111561065457600080fd5b8035906020019184600183028401116401000000008311171561067657600080fd5b91908080601f016020809104026020016040519081016040528093929190818152602001838380828437600081840152601f19601f8201169050808301925050505050505091929192905050506117e5565b005b3480156106d657600080fd5b5061070d600480360360408110156106ed57600080fd5b810190808035906020019092919080359060200190929190505050611a84565b005b34801561071b57600080fd5b50610724611d2f565b604051808273ffffffffffffffffffffffffffffffffffffffff1673ffffffffffffffffffffffffffffffffffffffff16815260200191505060405180910390f35b34801561077257600080fd5b5061079f6004803603602081101561078957600080fd5b8101908080359060200190929190505050611d58565b6040518082815260200191505060405180910390f35b3480156107c157600080fd5b506107ca611d79565b6040518082815260200191505060405180910390f35b3480156107ec57600080fd5b506108196004803603602081101561080357600080fd5b8101908080359060200190929190505050611dc3565b604051808a73ffffffffffffffffffffffffffffffffffffffff1673ffffffffffffffffffffffffffffffffffffffff16815260200180602001891515151581526020018873ffffffffffffffffffffffffffffffffffffffff1673ffffffffffffffffffffffffffffffffffffffff168152602001806020018781526020018615151515815260200185815260200184815260200183810383528b818151815260200191508051906020019080838360005b838110156108e75780820151818401526020810190506108cc565b50505050905090810190601f1680156109145780820380516001836020036101000a031916815260200191505b50838103825288818151815260200191508051906020019080838360005b8381101561094d578082015181840152602081019050610932565b50505050905090810190601f16801561097a5780820380516001836020036101000a031916815260200191505b509b50505050505050505050505060405180910390f35b34801561099d57600080fd5b506109ea600480360360408110156109b457600080fd5b81019080803573ffffffffffffffffffffffffffffffffffffffff16906020019092919080359060200190929190505050611f9b565b604051808215151515815260200191505060405180910390f35b348015610a1057600080fd5b50610a5360048036036020811015610a2757600080fd5b81019080803573ffffffffffffffffffffffffffffffffffffffff169060200190929190505050611fca565b6040518080602001828103825283818151815260200191508051906020019060200280838360005b83811015610a96578082015181840152602081019050610a7b565b505050509050019250505060405180910390f35b348015610ab657600080fd5b50610b9a60048036036060811015610acd57600080fd5b8101908080359060200190929190803573ffffffffffffffffffffffffffffffffffffffff16906020019092919080359060200190640100000000811115610b1457600080fd5b820183602082011115610b2657600080fd5b80359060200191846001830284011164010000000083111715610b4857600080fd5b91908080601f016020809104026020016040519081016040528093929190818152602001838380828437600081840152601f19601f8201169050808301925050505050505091929192905050506120c1565b005b348015610ba857600080fd5b50610beb60048036036020811015610bbf57600080fd5b81019080803573ffffffffffffffffffffffffffffffffffffffff169060200190929190505050612342565b6040518080602001828103825283818151815260200191508051906020019080838360005b83811015610c2b578082015181840152602081019050610c10565b50505050905090810190601f168015610c585780820380516001836020036101000a031916815260200191505b509250505060405180910390f35b348015610c7257600080fd5b50610c7b612426565b6040518082815260200191505060405180910390f35b610d5460048036036040811015610ca757600080fd5b810190808035906020019092919080359060200190640100000000811115610cce57600080fd5b820183602082011115610ce057600080fd5b80359060200191846001830284011164010000000083111715610d0257600080fd5b91908080601f016020809104026020016040519081016040528093929190818152602001838380828437600081840152601f19601f820116905080830192505050505050509192919290505050612430565b005b348015610d6257600080fd5b50610e1c60048036036020811015610d7957600080fd5b8101908080359060200190640100000000811115610d9657600080fd5b820183602082011115610da857600080fd5b80359060200191846001830284011164010000000083111715610dca57600080fd5b91908080601f016020809104026020016040519081016040528093929190818152602001838380828437600081840152601f19601f82011690508083019250505050505050919291929050505061279b565b6040518082815260200191505060405180910390f35b348015610e3e57600080fd5b50610e8160048036036020811015610e5557600080fd5b81019080803573ffffffffffffffffffffffffffffffffffffffff169060200190929190505050612c3b565b604051808873ffffffffffffffffffffffffffffffffffffffff1673ffffffffffffffffffffffffffffffffffffffff16815260200180602001806020018715151515815260200186151515158152602001858152602001848152602001838103835289818151815260200191508051906020019080838360005b83811015610f17578082015181840152602081019050610efc565b50505050905090810190601f168015610f445780820380516001836020036101000a031916815260200191505b50838103825288818151815260200191508051906020019080838360005b83811015610f7d578082015181840152602081019050610f62565b50505050905090810190601f168015610faa5780820380516001836020036101000a031916815260200191505b50995050505050505050505060405180910390f35b348015610fcb57600080fd5b5061101a60048036036040811015610fe257600080fd5b81019080803515159060200190929190803573ffffffffffffffffffffffffffffffffffffffff169060200190929190505050612de7565b005b34801561102857600080fd5b50611031612e9e565b604051808273ffffffffffffffffffffffffffffffffffffffff1673ffffffffffffffffffffffffffffffffffffffff16815260200191505060405180910390f35b6060600760008373ffffffffffffffffffffffffffffffffffffffff1673ffffffffffffffffffffffffffffffffffffffff1681526020019081526020016000208054806020026020016040519081016040528092919081815260200182805480156110fe57602002820191906000526020600020905b8154815260200190600101908083116110ea575b50505050509050919050565b60086020528160005260406000206020528060005260406000206000915091509054906101000a900460ff1681565b600960003373ffffffffffffffffffffffffffffffffffffffff1673ffffffffffffffffffffffffffffffffffffffff168152602001908152602001600020600083815260200190815260200160002060009054906101000a900460ff16156111a157600080fd5b80156111e05760016003600084815260200190815260200160002060060154016003600084815260200190815260200160002060060181905550611215565b600160036000848152602001908152602001600020600601540360036000848152602001908152602001600020600601819055505b6001600960003373ffffffffffffffffffffffffffffffffffffffff1673ffffffffffffffffffffffffffffffffffffffff168152602001908152602001600020600084815260200190815260200160002060006101000a81548160ff0219169083151502179055505050565b600860003373ffffffffffffffffffffffffffffffffffffffff1673ffffffffffffffffffffffffffffffffffffffff16815260200190815260200160002060008373ffffffffffffffffffffffffffffffffffffffff1673ffffffffffffffffffffffffffffffffffffffff16815260200190815260200160002060009054906101000a900460ff161561131657600080fd5b80156113ad576001600560008473ffffffffffffffffffffffffffffffffffffffff1673ffffffffffffffffffffffffffffffffffffffff1681526020019081526020016000206006015401600560008473ffffffffffffffffffffffffffffffffffffffff1673ffffffffffffffffffffffffffffffffffffffff1681526020019081526020016000206006018190555061143a565b6001600560008473ffffffffffffffffffffffffffffffffffffffff1673ffffffffffffffffffffffffffffffffffffffff1681526020019081526020016000206006015403600560008473ffffffffffffffffffffffffffffffffffffffff1673ffffffffffffffffffffffffffffffffffffffff168152602001908152602001600020600601819055505b6001600860003373ffffffffffffffffffffffffffffffffffffffff1673ffffffffffffffffffffffffffffffffffffffff16815260200190815260200160002060008473ffffffffffffffffffffffffffffffffffffffff1673ffffffffffffffffffffffffffffffffffffffff16815260200190815260200160002060006101000a81548160ff0219169083151502179055505050565b6000600154905090565b600481815481106114ea57fe5b906000526020600020016000915054906101000a900473ffffffffffffffffffffffffffffffffffffffff1681565b600080606060006060600080600080611530612ec3565b600360008c8152602001908152602001600020604051806101200160405290816000820160009054906101000a900473ffffffffffffffffffffffffffffffffffffffff1673ffffffffffffffffffffffffffffffffffffffff1673ffffffffffffffffffffffffffffffffffffffff168152602001600182018054600181600116156101000203166002900480601f01602080910402602001604051908101604052809291908181526020018280546001816001161561010002031660029004801561163e5780601f106116135761010080835404028352916020019161163e565b820191906000526020600020905b81548152906001019060200180831161162157829003601f168201915b505050505081526020016002820160009054906101000a900460ff161515151581526020016002820160019054906101000a900473ffffffffffffffffffffffffffffffffffffffff1673ffffffffffffffffffffffffffffffffffffffff1673ffffffffffffffffffffffffffffffffffffffff168152602001600382018054600181600116156101000203166002900480601f0160208091040260200160405190810160405280929190818152602001828054600181600116156101000203166002900480156117515780601f1061172657610100808354040283529160200191611751565b820191906000526020600020905b81548152906001019060200180831161173457829003601f168201915b50505050508152602001600482015481526020016005820160009054906101000a900460ff161515151581526020016006820154815260200160078201548152505090508a81600001518260200151836060015184608001518560c001518660a001518760e00151886101000151869650849450995099509950995099509950995099509950509193959799909294969850565b60001515600560003373ffffffffffffffffffffffffffffffffffffffff1673ffffffffffffffffffffffffffffffffffffffff16815260200190815260200160002060030160019054906101000a900460ff1615151461184557600080fd5b61184d612f3f565b6040518061010001604052803373ffffffffffffffffffffffffffffffffffffffff1681526020018481526020018381526020016000151581526020016001151581526020016000815260200160006040519080825280602002602001820160405280156118ca5781602001602082028038833980820191505090505b5081526020016000815250905080600560003373ffffffffffffffffffffffffffffffffffffffff1673ffffffffffffffffffffffffffffffffffffffff16815260200190815260200160002060008201518160000160006101000a81548173ffffffffffffffffffffffffffffffffffffffff021916908373ffffffffffffffffffffffffffffffffffffffff160217905550602082015181600101908051906020019061197a929190612f9e565b506040820151816002019080519060200190611997929190612f9e565b5060608201518160030160006101000a81548160ff02191690831515021790555060808201518160030160016101000a81548160ff02191690831515021790555060a0820151816004015560c08201518160050190805190602001906119fe92919061301e565b5060e082015181600601559050506004339080600181540180825580915050600190039060005260206000200160009091909190916101000a81548173ffffffffffffffffffffffffffffffffffffffff021916908373ffffffffffffffffffffffffffffffffffffffff16021790555060018060008282540192505081905550505050565b6003600083815260200190815260200160002060020160009054906101000a900460ff16611afd576040517f08c379a00000000000000000000000000000000000000000000000000000000081526004018080602001828103825260288152602001806131366028913960400191505060405180910390fd5b6003600083815260200190815260200160002060050160009054906101000a900460ff1615611b77576040517f08c379a00000000000000000000000000000000000000000000000000000000081526004018080602001828103825260268152602001806131876026913960400191505060405180910390fd5b3373ffffffffffffffffffffffffffffffffffffffff166003600084815260200190815260200160002060020160019054906101000a900473ffffffffffffffffffffffffffffffffffffffff1673ffffffffffffffffffffffffffffffffffffffff1614611c31576040517f08c379a000000000000000000000000000000000000000000000000000000000815260040180806020018281038252602981526020018061315e6029913960400191505060405180910390fd5b60008111611ca7576040517f08c379a00000000000000000000000000000000000000000000000000000000081526004018080602001828103825260198152602001807f70726f64756374206d757374206861766520612070726963650000000000000081525060200191505060405180910390fd5b80600360008481526020019081526020016000206004018190555060016003600084815260200190815260200160002060050160006101000a81548160ff0219169083151502179055506001600260008282540192505081905550600a8290806001815401808255809150506001900390600052602060002001600090919091909150555050565b60008060009054906101000a900473ffffffffffffffffffffffffffffffffffffffff16905090565b600a8181548110611d6557fe5b906000526020600020016000915090505481565b6000600560003373ffffffffffffffffffffffffffffffffffffffff1673ffffffffffffffffffffffffffffffffffffffff16815260200190815260200160002060040154905090565b60036020528060005260406000206000915090508060000160009054906101000a900473ffffffffffffffffffffffffffffffffffffffff1690806001018054600181600116156101000203166002900480601f016020809104026020016040519081016040528092919081815260200182805460018160011615610100020316600290048015611e955780601f10611e6a57610100808354040283529160200191611e95565b820191906000526020600020905b815481529060010190602001808311611e7857829003601f168201915b5050505050908060020160009054906101000a900460ff16908060020160019054906101000a900473ffffffffffffffffffffffffffffffffffffffff1690806003018054600181600116156101000203166002900480601f016020809104026020016040519081016040528092919081815260200182805460018160011615610100020316600290048015611f6c5780601f10611f4157610100808354040283529160200191611f6c565b820191906000526020600020905b815481529060010190602001808311611f4f57829003601f168201915b5050505050908060040154908060050160009054906101000a900460ff16908060060154908060070154905089565b60096020528160005260406000206020528060005260406000206000915091509054906101000a900460ff1681565b606060011515600560008473ffffffffffffffffffffffffffffffffffffffff1673ffffffffffffffffffffffffffffffffffffffff16815260200190815260200160002060030160009054906101000a900460ff1615151461202c57600080fd5b600660008373ffffffffffffffffffffffffffffffffffffffff1673ffffffffffffffffffffffffffffffffffffffff1681526020019081526020016000208054806020026020016040519081016040528092919081815260200182805480156120b557602002820191906000526020600020905b8154815260200190600101908083116120a1575b50505050509050919050565b6003600084815260200190815260200160002060020160009054906101000a900460ff1661213a576040517f08c379a00000000000000000000000000000000000000000000000000000000081526004018080602001828103825260288152602001806131366028913960400191505060405180910390fd5b3373ffffffffffffffffffffffffffffffffffffffff166003600085815260200190815260200160002060020160019054906101000a900473ffffffffffffffffffffffffffffffffffffffff1673ffffffffffffffffffffffffffffffffffffffff16146121f4576040517f08c379a000000000000000000000000000000000000000000000000000000000815260040180806020018281038252602981526020018061315e6029913960400191505060405180910390fd5b816003600085815260200190815260200160002060020160016101000a81548173ffffffffffffffffffffffffffffffffffffffff021916908373ffffffffffffffffffffffffffffffffffffffff1602179055508060036000858152602001908152602001600020600301908051906020019061227392919061306b565b5060006003600085815260200190815260200160002060050160006101000a81548160ff02191690831515021790555060016003600085815260200190815260200160002060070154016003600085815260200190815260200160002060070181905550600760008373ffffffffffffffffffffffffffffffffffffffff1673ffffffffffffffffffffffffffffffffffffffff168152602001908152602001600020839080600181540180825580915050600190039060005260206000200160009091909190915055505050565b6060600560008373ffffffffffffffffffffffffffffffffffffffff1673ffffffffffffffffffffffffffffffffffffffff1681526020019081526020016000206001018054600181600116156101000203166002900480601f01602080910402602001604051908101604052809291908181526020018280546001816001161561010002031660029004801561241a5780601f106123ef5761010080835404028352916020019161241a565b820191906000526020600020905b8154815290600101906020018083116123fd57829003601f168201915b50505050509050919050565b6000600254905090565b6003600083815260200190815260200160002060020160009054906101000a900460ff166124a9576040517f08c379a00000000000000000000000000000000000000000000000000000000081526004018080602001828103825260288152602001806131366028913960400191505060405180910390fd5b6003600083815260200190815260200160002060050160009054906101000a900460ff1661253f576040517f08c379a000000000000000000000000000000000000000000000000000000000815260040180806020018281038252601b8152602001807f50726f64756374206973206e6f7420666f722073656c6c696e6720000000000081525060200191505060405180910390fd5b60036000838152602001908152602001600020600401543410156125cb576040517f08c379a00000000000000000000000000000000000000000000000000000000081526004018080602001828103825260128152602001807f496e73756666696369656e742066756e6473000000000000000000000000000081525060200191505060405180910390fd5b60006003600084815260200190815260200160002060020160019054906101000a900473ffffffffffffffffffffffffffffffffffffffff1690508073ffffffffffffffffffffffffffffffffffffffff166108fc349081150290604051600060405180830381858888f1935050505015801561264c573d6000803e3d6000fd5b50336003600085815260200190815260200160002060020160016101000a81548173ffffffffffffffffffffffffffffffffffffffff021916908373ffffffffffffffffffffffffffffffffffffffff160217905550816003600085815260200190815260200160002060030190805190602001906126cc92919061306b565b5060006003600085815260200190815260200160002060050160006101000a81548160ff02191690831515021790555060016003600085815260200190815260200160002060070154016003600085815260200190815260200160002060070181905550600760003373ffffffffffffffffffffffffffffffffffffffff1673ffffffffffffffffffffffffffffffffffffffff168152602001908152602001600020839080600181540180825580915050600190039060005260206000200160009091909190915055505050565b600060011515600560003373ffffffffffffffffffffffffffffffffffffffff1673ffffffffffffffffffffffffffffffffffffffff16815260200190815260200160002060030160009054906101000a900460ff161515146127fd57600080fd5b60003383604051602001808373ffffffffffffffffffffffffffffffffffffffff1673ffffffffffffffffffffffffffffffffffffffff1660601b815260140182805190602001908083835b6020831061286c5780518252602082019150602081019050602083039250612849565b6001836020036101000a03801982511681845116808217855250505050505090500192505050604051602081830303815290604052805190602001209050600073ffffffffffffffffffffffffffffffffffffffff166003600083815260200190815260200160002060000160009054906101000a900473ffffffffffffffffffffffffffffffffffffffff1673ffffffffffffffffffffffffffffffffffffffff1614612982576040517f08c379a00000000000000000000000000000000000000000000000000000000081526004018080602001828103825260168152602001807f50726f6475637420616c7265616479206578697374730000000000000000000081525060200191505060405180910390fd5b6040518061012001604052803373ffffffffffffffffffffffffffffffffffffffff1681526020018481526020016001151581526020013373ffffffffffffffffffffffffffffffffffffffff1681526020016040518060400160405280600b81526020017f626c616e6b20626c616e6b0000000000000000000000000000000000000000008152508152602001600081526020016000151581526020016000815260200160008152506003600083815260200190815260200160002060008201518160000160006101000a81548173ffffffffffffffffffffffffffffffffffffffff021916908373ffffffffffffffffffffffffffffffffffffffff1602179055506020820151816001019080519060200190612aa2929190612f9e565b5060408201518160020160006101000a81548160ff02191690831515021790555060608201518160020160016101000a81548173ffffffffffffffffffffffffffffffffffffffff021916908373ffffffffffffffffffffffffffffffffffffffff1602179055506080820151816003019080519060200190612b26929190612f9e565b5060a0820151816004015560c08201518160050160006101000a81548160ff02191690831515021790555060e082015181600601556101008201518160070155905050600660003373ffffffffffffffffffffffffffffffffffffffff1673ffffffffffffffffffffffffffffffffffffffff168152602001908152602001600020819080600181540180825580915050600190039060005260206000200160009091909190915055600760003373ffffffffffffffffffffffffffffffffffffffff1673ffffffffffffffffffffffffffffffffffffffff16815260200190815260200160002081908060018154018082558091505060019003906000526020600020016000909190919091505550919050565b60056020528060005260406000206000915090508060000160009054906101000a900473ffffffffffffffffffffffffffffffffffffffff1690806001018054600181600116156101000203166002900480601f016020809104026020016040519081016040528092919081815260200182805460018160011615610100020316600290048015612d0d5780601f10612ce257610100808354040283529160200191612d0d565b820191906000526020600020905b815481529060010190602001808311612cf057829003601f168201915b505050505090806002018054600181600116156101000203166002900480601f016020809104026020016040519081016040528092919081815260200182805460018160011615610100020316600290048015612dab5780601f10612d8057610100808354040283529160200191612dab565b820191906000526020600020905b815481529060010190602001808311612d8e57829003601f168201915b5050505050908060030160009054906101000a900460ff16908060030160019054906101000a900460ff16908060040154908060060154905087565b6000809054906101000a900473ffffffffffffffffffffffffffffffffffffffff1673ffffffffffffffffffffffffffffffffffffffff163373ffffffffffffffffffffffffffffffffffffffff1614612e4057600080fd5b81600560008373ffffffffffffffffffffffffffffffffffffffff1673ffffffffffffffffffffffffffffffffffffffff16815260200190815260200160002060030160006101000a81548160ff0219169083151502179055505050565b6000809054906101000a900473ffffffffffffffffffffffffffffffffffffffff1681565b604051806101200160405280600073ffffffffffffffffffffffffffffffffffffffff16815260200160608152602001600015158152602001600073ffffffffffffffffffffffffffffffffffffffff168152602001606081526020016000815260200160001515815260200160008152602001600081525090565b604051806101000160405280600073ffffffffffffffffffffffffffffffffffffffff16815260200160608152602001606081526020016000151581526020016000151581526020016000815260200160608152602001600081525090565b828054600181600116156101000203166002900490600052602060002090601f016020900481019282601f10612fdf57805160ff191683800117855561300d565b8280016001018555821561300d579182015b8281111561300c578251825591602001919060010190612ff1565b5b50905061301a91906130eb565b5090565b82805482825590600052602060002090810192821561305a579160200282015b8281111561305957825182559160200191906001019061303e565b5b5090506130679190613110565b5090565b828054600181600116156101000203166002900490600052602060002090601f016020900481019282601f106130ac57805160ff19168380011785556130da565b828001600101855582156130da579182015b828111156130d95782518255916020019190600101906130be565b5b5090506130e791906130eb565b5090565b61310d91905b808211156131095760008160009055506001016130f1565b5090565b90565b61313291905b8082111561312e576000816000905550600101613116565b5090565b9056fe50726f6475637420646f6573206e6f74206578697374206f7220697320636f756e746572666569744f6e6c792063757272656e74206f776e65722063616e207472616e73666572206f776e65727368697050726f6475637420697320616c726561647920696e20746865206d61726b6574706c61636520a2646970667358221220ba6a57799ebd827ddd59a48351f36d2a1c2b344add171838c8fda252014ba25e64736f6c63430006000033",
  "source": "// SPDX-License-Identifier: MIT \r\npragma solidity >=0.4.21 <0.9.0;\r\n\r\n\r\n\r\n\r\ncontract ProductAuthentication {\r\n    address public admin;\r\n    uint256 companyCount;\r\n    uint256 soldCount;\r\n\r\n    constructor() public {\r\n        // Initilizing default values\r\n        admin = msg.sender;\r\n  \r\n        companyCount = 0;\r\n        soldCount=0;\r\n        \r\n    }\r\n\r\n    function getAdmin() public view returns (address) {\r\n        // Returns account address used to deploy contract (i.e. admin)\r\n        return admin;\r\n    }\r\n\r\n    modifier onlyAdmin() {\r\n        // Modifier for only admin access\r\n        require(msg.sender == admin);\r\n        _;\r\n    }\r\n    \r\n    struct Product {\r\n        address manufacturer;\r\n        string serialNumber;\r\n        bool isAuthentic;\r\n        address currentOwner;\r\n        string proofOfOwnership;\r\n\r\n        uint256 price;\r\n        bool sell;\r\n\r\n        \r\n        int rate;\r\n        int usesCount;\r\n\r\n\r\n\r\n        \r\n\r\n\r\n    }\r\n\r\n    \r\n    \r\n    mapping(bytes32 => Product) public products; \r\n\r\n \r\n\r\n    \r\n    \r\n    address[] public companies;\r\n \r\n    \r\n    \r\n     // Array of address to store address of Company\r\n    mapping(address => Company) public companyDetails;\r\n    \r\n   \r\n     // Modeling a Company\r\n    struct Company {\r\n        address companyAddress;\r\n        string name;\r\n        string email;\r\n        bool isVerified;\r\n \r\n        bool isRegistered;\r\n        uint256 productCount;\r\n        bytes32[]  productList;\r\n\r\n\r\n        int rate;\r\n       \r\n\r\n\r\n    }\r\n\r\n\r\n    // Request to be added as company\r\n    function registerAsCompany(string memory _name, string memory _email)  public {\r\n        require(companyDetails[msg.sender].isRegistered ==false);\r\n        Company memory newCompany =\r\n            Company({\r\n                companyAddress: msg.sender,\r\n                name: _name,\r\n                email: _email,\r\n                isVerified: false,\r\n                isRegistered: true,\r\n                productCount:0,\r\n                productList:new bytes32[](0),\r\n                rate:0\r\n\r\n            });\r\n        companyDetails[msg.sender] = newCompany;\r\n        companies.push(msg.sender);\r\n        companyCount += 1;\r\n    }\r\n    \r\n    \r\n    // Verify company\r\n    function verifyCompany(bool _verifedStatus, address companyAddress)\r\n        public\r\n        // Only admin can verify\r\n        onlyAdmin\r\n    {\r\n        companyDetails[companyAddress].isVerified = _verifedStatus;\r\n    }\r\n    function getCompanyName(address companyAddress)\r\n       public view returns ( string memory)\r\n       \r\n    {\r\n        return companyDetails[companyAddress].name;\r\n    }\r\n\r\n  \r\n \r\n    \r\n\r\n    function addProduct( string memory _serialNumber) public returns (bytes32) {\r\n        require(companyDetails[msg.sender].isVerified == true);\r\n\r\n        bytes32 productId = keccak256(abi.encodePacked(msg.sender, _serialNumber)); // generate unique ID\r\n        require(products[productId].manufacturer == address(0), \"Product already exists\");\r\n        products[productId] = Product(msg.sender, _serialNumber, true, msg.sender, \"blank blank\",0,false,0,0);\r\n        \r\n        \r\n        productsByManufacturer[msg.sender].push(productId); \r\n        productsByOwner[msg.sender].push(productId); \r\n\r\n      \r\n    }\r\n     mapping(address => bytes32[]) productsByManufacturer; \r\n     function getProductsByManufacturer(address _manufacturer) public view returns (bytes32[] memory) {\r\n        require(companyDetails[_manufacturer].isVerified == true);\r\n        return productsByManufacturer[_manufacturer];\r\n    }\r\n     mapping(address => bytes32[]) productsByOwner; \r\n     function getProductsByOwner(address owner) public view returns (bytes32[] memory) {\r\n\r\n        return productsByOwner[owner];\r\n    }\r\n\r\n\r\n    \r\n\r\n     function transferOwnership(bytes32 _productId, address _newOwner,string memory proofOfOwnership) public {\r\n        require(products[_productId].isAuthentic, \"Product does not exist or is counterfeit\");\r\n        require(products[_productId].currentOwner == msg.sender, \"Only current owner can transfer ownership\");\r\n        products[_productId].currentOwner = _newOwner;\r\n        products[_productId].proofOfOwnership = proofOfOwnership;\r\n        products[_productId].sell = false;\r\n        products[_productId].usesCount = products[_productId].usesCount+1;\r\n        \r\n        productsByOwner[_newOwner].push(_productId); \r\n        \r\n    }\r\n    \r\n    \r\n    function checkProduct(bytes32 _productId) public view returns (bytes32, address, string memory, address, string memory,bool,uint256,int,int) {\r\n        Product memory product = products[_productId];\r\n        return (_productId, product.manufacturer, product.serialNumber, product.currentOwner,product.proofOfOwnership,product.sell,product.price,product.rate,product.usesCount);\r\n    }\r\n\r\n\r\n\r\n  \r\n\r\n// Get candidates count\r\n    function getTotalCompany() public view returns (uint256) {\r\n        // Returns total number of candidates\r\n        return companyCount;\r\n    }\r\n  \r\n\r\n    // Get  count from each company\r\n    function getTotalProduct() public view returns (uint256) {\r\n        // Returns total number of voters\r\n        return companyDetails[msg.sender].productCount;\r\n    }\r\n  \r\n\r\n\r\n    function buyProduct(bytes32 _productId,string memory proofOfOwnership) public payable {\r\n        require(products[_productId].isAuthentic, \"Product does not exist or is counterfeit\");\r\n        require(products[_productId].sell ,\"Product is not for selling \");\r\n       \r\n        require(msg.value >= products[_productId].price, \"Insufficient funds\");\r\n\r\n\r\n        address payable _receiver = payable(products[_productId].currentOwner);\r\n         _receiver.transfer(msg.value);\r\n        products[_productId].currentOwner = msg.sender;\r\n        products[_productId].proofOfOwnership = proofOfOwnership;\r\n        products[_productId].sell = false;\r\n         products[_productId].usesCount = products[_productId].usesCount+1;\r\n\r\n\r\n        productsByOwner[msg.sender].push(_productId); \r\n\r\n      \r\n\r\n\r\n    }\r\n\r\n\r\n\r\n    mapping(address=>mapping(address=>bool)) public rated_accounts_company;\r\n\r\n    \r\n\r\n    function companyRate(address companyAddress,bool b) public  {\r\n     require(!rated_accounts_company[msg.sender][companyAddress]);\r\n      if (b){\r\ncompanyDetails[companyAddress].rate =companyDetails[companyAddress].rate+1;\r\n\r\n      }else{\r\ncompanyDetails[companyAddress].rate =companyDetails[companyAddress].rate-1;\r\n\r\n      }\r\n      rated_accounts_company[msg.sender][companyAddress]=true;\r\n        \r\n      \r\n \r\n    }\r\n    mapping(address=>mapping(bytes32=>bool)) public rated_accounts;\r\n\r\n    \r\n\r\n    function productRate(bytes32 _productId,bool b) public  {\r\n     require(!rated_accounts[msg.sender][_productId]);\r\n      if (b){\r\nproducts[_productId].rate =products[_productId].rate+1;\r\n\r\n      }else{\r\nproducts[_productId].rate =products[_productId].rate-1;\r\n\r\n      }\r\n      rated_accounts[msg.sender][_productId]=true;\r\n        \r\n      \r\n \r\n    }\r\n\r\n   \r\n        // Get  count from each company\r\n    function getSoldProduct() public view returns (uint256) {\r\n        // Returns total number of voters\r\n        return soldCount;\r\n    }\r\n  \r\n    bytes32[] public soldProducts;\r\n    function sellProduct(bytes32 _productId, uint256 _price) public {\r\n        require(products[_productId].isAuthentic, \"Product does not exist or is counterfeit\");\r\n        require(!products[_productId].sell ,\"Product is already in the marketplace \");\r\n        require(products[_productId].currentOwner == msg.sender, \"Only current owner can transfer ownership\");\r\n\r\n        require(_price>0, \"product must have a price\");\r\n\r\n        products[_productId].price= _price;\r\n        products[_productId].sell = true;\r\n        soldCount += 1;\r\n        soldProducts.push(_productId);\r\n\r\n        \r\n\r\n\r\n        \r\n    }\r\n\r\n}\r\n\r\n",
  "sourcePath": "C:\\Users\\ah\\Desktop\\dapp\\contracts\\ProductAuthentication.sol",
  "compiler": {
    "name": "solc",
    "version": "0.6.0+commit.26b70077.Emscripten.clang"
  },
  "schemaVersion": "3.4.13",
  "updatedAt": "2023-06-13T12:05:20.528Z",
  "networkType": "ethereum",
  "devdoc": {
    "methods": {}
  },
  "userdoc": {
    "methods": {}
  }
}